:100000000C9463000C948B000C948B000C943205C0
:100010000C9432050C9432050C948B000C948B00DC
:100020000C948B000C948B000C948B000C94AA0500
:100030000C948B000C948B000C948B000C948B0014
:100040000C94E8040C948B000C94B6040C9490046B
:100050000C948B000C948B000C948B000C948B00F4
:100060000C948B000C948B000000000024002700EF
:100070002A0000000008000201000003040700003D
:1000800000000000000000000000230026002900FE
:1000900000000000250028002B00040404040404D0
:1000A0000404020202020202030303030303010227
:1000B00004081020408001020408102001020408F6
:1000C00010202708620C11241FBECFEFD8E0DEBF3E
:1000D000CDBF11E0A0E0B1E0E4ECF0E202C0059099
:1000E0000D92AA3DB107D9F723E0AAEDB1E001C016
:1000F0001D92A137B207E1F710E0C2E6D0E004C0DC
:100100002197FE010E942A0FC136D107C9F70E942C
:10011000AA090C9455100C940000DC01ED91FC919F
:100120000190F081E02D0994AF92BF92CF92DF92BF
:10013000EF92FF920F931F93CF93DF936C017B019C
:100140008B01040F151FEB015E01AE18BF08C0172D
:10015000D10759F06991D601ED91FC910190F081A0
:10016000E02DC6010995892B79F7C501DF91CF9163
:100170001F910F91FF90EF90DF90CF90BF90AF90C5
:100180000895FC01538D448D252F30E0842F90E09D
:10019000821B930B541710F0CF9608950197089582
:1001A000FC01918D828D981761F0A28DAE0FBF2F4B
:1001B000B11D5D968C91928D9F5F9F73928F90E0A1
:1001C00008958FEF9FEF0895FC01918D828D981710
:1001D00031F0828DE80FF11D858D90E008958FEF4D
:1001E0009FEF0895FC01918D228D892F90E0805C16
:1001F0009F4F821B91098F73992708958FE292E098
:100200000E94F20021E0892B09F420E0822F08955A
:1002100080E090E0892B29F00E94FE0081110C946F
:1002200000000895FC01A48DA80FB92FB11DA35A99
:10023000BF4F2C91848D90E001968F739927848F06
:10024000A689B7892C93A089B1898C918370806429
:100250008C93938D848D981306C00288F389E02DCA
:1002600080818F7D80830895EF92FF920F931F937B
:10027000CF93DF93EC0181E0888F9B8D8C8D981359
:100280001AC0E889F989808185FF15C09FB7F89465
:10029000EE89FF896083E889F989808183708064B1
:1002A00080839FBF81E090E0DF91CF911F910F91FC
:1002B000FF90EF900895F62E0B8D10E00F5F1F4F0B
:1002C0000F731127E02E8C8D8E110CC00FB607FC1A
:1002D000FACFE889F989808185FFF5CFCE010E94A8
:1002E0001201F1CFEB8DEC0FFD2FF11DE35AFF4F03
:1002F000F0829FB7F8940B8FEA89FB898081806236
:10030000CFCFCF93DF93EC01888D8823B9F0AA89F2
:10031000BB89E889F9898C9185FD03C0808186FDC0
:100320000DC00FB607FCF7CF8C9185FFF2CF80810F
:1003300085FFEDCFCE010E941201E9CFDF91CF9171
:10034000089590E0FC01EE58FF4F2491FC01E25526
:10035000FF4F3491FC01E656FF4FE491EE23C9F0C4
:10036000222339F0233001F1A8F4213019F1223091
:1003700029F1F0E0EE0FFF1FE057FF4FA591B49178
:100380008FB7F894EC91611126C030953E233C93D1
:100390008FBF08952730A9F02830C9F0243049F7DD
:1003A000809180008F7D03C0809180008F77809343
:1003B0008000DFCF84B58F7784BDDBCF84B58F7DA0
:1003C000FBCF8091B0008F778093B000D2CF809127
:1003D000B0008F7DF9CF3E2BDACFCF93DF9390E043
:1003E000FC01E255FF4F249186569F4FFC018491FA
:1003F0008823D1F090E0880F991FFC01E859FF4F46
:10040000A591B491FC01E057FF4FC591D4916111C2
:100410000EC09FB7F8948C91E22FE0958E238C93B9
:100420002881E223E8839FBFDF91CF9108958FB7A2
:10043000F894EC91E22BEC938FBFF6CF8E3008F05E
:100440008E508770806480937C0080917A008064F5
:1004500080937A0080917A0086FDFCCF80917800AD
:100460009091790008953FB7F89480911F02909180
:100470002002A0912102B091220226B5A89B05C0BE
:100480002F3F19F00196A11DB11D3FBFBA2FA92F13
:10049000982F8827BC01CD01620F711D811D911D10
:1004A00042E0660F771F881F991F4A95D1F708957C
:1004B0008F929F92AF92BF92CF92DF92EF92FF9274
:1004C0004B015C010E9433026B017C010E943302EC
:1004D0006C197D098E099F09683E7340810591055D
:1004E000A8F321E0821A9108A108B10888EEC80E8D
:1004F00083E0D81EE11CF11C81149104A104B10415
:1005000029F7FF90EF90DF90CF90BF90AF909F9032
:100510008F900895209125023091260228173907DF
:1005200071F49091230280912402981741F0E09198
:100530002302F0E0E652FE4F808190E008958FEFB5
:100540009FEF08950895EF92FF920F931F93CF931B
:10055000DF93DC015C96ED90FC905D97E114F10473
:1005600079F481E090E013969C938E93129790E03B
:1005700080E0DF91CF911F910F91FF90EF90089550
:100580005196ED91FC91529750968C915097982FDF
:1005900090950FB75E962C915E97122F127021FDE9
:1005A0006095F8942081112319F1282B2083E7010D
:1005B0002197F1F728E0462F50E0308160FF1AC004
:1005C000382B3083E7012197F1F7BA0175956795CC
:1005D000215089F7112381F08081892380830FBF07
:1005E0005C968D919C910197F1F781E090E0C1CFED
:1005F0002923DCCF3923E5CF9081892BEFCF2091C0
:100600002502309126022817390771F480912402BF
:100610002091230290E0805C9F4F821B910960E44F
:1006200070E00E94D50E089590E080E0089520913A
:1006300025023091260228173907B9F49091230238
:1006400080912402981789F0E0912302F0E0E652AD
:10065000FE4F80812091230230E02F5F3F4F2F73A8
:1006600033272093230290E008958FEF9FEF0895A2
:1006700090E080E00895FB0101900020E9F73197B8
:10068000AF01461B570BDC01ED91FC910280F38119
:10069000E02D09948F929F92AF92BF92EF92FF92BA
:1006A0000F931F93CF93DF93CDB7DEB7A1970FB60C
:1006B000F894DEBF0FBECDBF7C01FA01CB0119A2B9
:1006C000223008F42AE08E010F5D1F4F822E912CFC
:1006D000B12CA12CBF01A50194010E94E90EF901E2
:1006E000CA016A300CF5605DD8016E938D01232B31
:1006F000242B252B79F790E080E0109721F0BD01A5
:10070000C7010E943B03A1960FB6F894DEBF0FBE4F
:10071000CDBFDF91CF911F910F91FF90EF90BF90D0
:10072000AF909F908F900895695CDECF2F923F929B
:100730004F925F926F927F928F929F92AF92BF92F1
:10074000CF92DF92EF92FF921F93CF93DF93EC0152
:100750006A017B01722EAB019601CB01B6010E94AA
:10076000BC0E6AE271E0811126C046015701E8948F
:10077000B7F82FEF3FEF4FE75FE7C501B4010E94E5
:10078000BC0E81110CC02FEF3FEF4FE75FE7C501B3
:10079000B4010E94EB0C6EE271E0181664F02FEFCA
:1007A0003FEF4FE75FE4C701B6010E944A0E1816FB
:1007B000B4F462E371E0CE01DF91CF911F91FF901D
:1007C000EF90DF90CF90BF90AF909F908F907F90F1
:1007D0006F905F904F903F902F900C943B032FEFC2
:1007E0003FEF4FE75FECC701B6010E94EB0C87FDBE
:1007F000E0CF20E030E0A901C701B6010E94EB0C78
:10080000312C212C87FF09C06DE2CE010E948D00A2
:100810001C01F7FAF094F7F8F09410E060E070E053
:1008200080E09FE3711641F020E030E040E251E4C7
:100830000E94F00C1F5FF6CFA70196010E947F0C6B
:100840002B013C010E94690D4B015C012AE0BC01B7
:10085000A401CE010E944A037C01E20CF31C112387
:10086000C1F1C501B4010E94980D9B01AC01C30107
:10087000B2010E947E0C4B015C016EE2CE010E942F
:100880008D00E80EF91E115020F120E030E040E22A
:1008900051E4C501B4010E944F0E2B013C010E949E
:1008A000690D4B01B12CA12C2AE0B501A401CE01A8
:1008B0000E944A03E80EF91EC501B4010E94980D7A
:1008C0009B01AC01C301B2010E947E0C4B015C0193
:1008D000DACFC701DF91CF911F91FF90EF90DF90AA
:1008E000CF90BF90AF909F908F907F906F905F90D0
:1008F0004F903F902F9008950F931F93CF93DF93C6
:10090000EC010E943B038C0166E371E0CE010E9482
:100910003B03800F911FDF91CF911F910F9108959D
:100920001F920F920FB60F9211242F933F934F9364
:100930005F936F937F938F939F93AF93BF93EF9347
:10094000FF938FE292E00E941201FF91EF91BF911D
:10095000AF919F918F917F916F915F914F913F9157
:100960002F910F900FBE0F901F9018951F920F920E
:100970000FB60F9211242F938F939F93EF93FF93B2
:10098000E0913F02F09140028081E0914502F091B8
:10099000460282FD1BC09081809148028F5F8F7359
:1009A00020914902821741F0E0914802F0E0E15DB8
:1009B000FD4F958F80934802FF91EF919F918F910A
:1009C0002F910F900FBE0F901F9018958081F4CF3C
:1009D0001F920F920FB60F9211242F933F938F9374
:1009E0009F93AF93BF9380911B0290911C02A091A3
:1009F0001D02B0911E0230911A0223E0230F2D3701
:100A000058F50196A11DB11D20931A0280931B0277
:100A100090931C02A0931D02B0931E0280911F02AE
:100A200090912002A0912102B09122020196A11D75
:100A3000B11D80931F0290932002A0932102B093D6
:100A40002202BF91AF919F918F913F912F910F9073
:100A50000FBE0F901F90189526E8230F0296A11D38
:100A6000B11DD2CF1F920F920FB60F9211242F9368
:100A70003F934F935F936F937F938F939F93AF9326
:100A8000BF93EF93FF93E0912502F09126023097F8
:100A900049F0A685B7858585968D91FF14C09C91F8
:100AA0008923A1F4FF91EF91BF91AF919F918F9115
:100AB0007F916F915F914F913F912F910F900FBE5A
:100AC0000F901F9018959C91892361F7A389B48991
:100AD0009C918589809589238C9386899789019734
:100AE000F1F7608D718DA685B785558538E020E0DA
:100AF000CB010197F1F7822F90E095958795282FEC
:100B00004C91452309F02068315091F7868D81FD85
:100B100020958091240290E001968F73992730915F
:100B20002302381799F0A0912402B0E0A652BE4FDC
:100B30002C9380932402828D938D0197F1F7A389E2
:100B4000B4898C919589892B8C93ACCF868D8160EB
:100B5000868FF1CF1F920F920FB60F9211242F9212
:100B60003F924F925F926F927F928F929F92AF923D
:100B7000BF92CF92DF92EF92FF920F931F932F932A
:100B80003F934F935F936F937F938F939F93AF9315
:100B9000BF93EF93FF93CF93DF9300D000D0CDB7F7
:100BA000DEB7F8942091CC023091CD023A832983AC
:100BB000F12CE12CD12CC12CA981BA8111968C91F8
:100BC00011978C151D04C1F0BCF01296ED91FC91AB
:100BD000EE0DFF1DFC83EB8380810E941E02AB8122
:100BE000BC8119969C938E931897BFEFCB1ADB0AA2
:100BF000ECE3EE0EF11CE0CF312C212C10E000E0F4
:100C000050E6852E5AEE952EA12CB12CA981BA81E1
:100C100011968C9111978017110609F00CF4EBC115
:100C20001296ED91FC91E20DF31DFC83EB8340A83D
:100C300051A862A873A8808D918DA28DB38D480EA6
:100C4000591E6A1E7B1E40AA51AA62AA73AA8489F1
:100C50009589A689B7897201E81AF90A8685978568
:100C60000C97978786878685978597FDC3C086856D
:100C70009785873F99400CF0C0C0AB81BC811E9620
:100C80008D919C91EB81FC819787868780859185EA
:100C9000C0ACD1AC8C159D05CCF48285938565E004
:100CA00070E00E94D50ECB01880F991F680F791F45
:100CB0006E157F055CF42085318586A997A92817D4
:100CC000390724F48085918597AB86ABAB81BC81D5
:100CD00018968D919C911997C816D9069CF4189670
:100CE0002D913C911997D4968D919C91D59782170F
:100CF000930744F418968D919C911997D5969C93DF
:100D00008E93D497BBEFEB16F1040CF4ACC0EB81DF
:100D1000FC8180859185C816D9060CF0A4C0848515
:100D20008111A1C08285938565E070E00E94D50E97
:100D3000CB01880F991F680F791F6E157F050CF086
:100D400092C021E0248784899589A689B789F20118
:100D5000E81BF90BAB81BC811B96FC93EE931A97B1
:100D6000FD01448A558A668A778A83AD882371F0AB
:100D700013AE7C96CD01C096AB81BC811A962D91A5
:100D80003C91219331938E179F07B1F7EB81FC8142
:100D900082AD8823A9F112AE21E023AFAB81BC81E3
:100DA00012968D919C91139797FD08C01C962C91DB
:100DB00061E0211101C060E00E94A101EB81FC8192
:100DC000E480F580F7FCEDC0868597856AE070E0E9
:100DD0000E94D50E7C836B8361E08E2D0E94ED0115
:100DE0002B813C81232B09F0ACC060E08E2D0E944A
:100DF000A101D7C090E080E045CF86EF99E042CFD7
:100E0000EB81FC817C964B815C81425D5F4F30E0E1
:100E100020E08281938181939193280F391F4E178F
:100E20005F07B9F7AB81BC811A968D919C911B9796
:100E30009F969C938E939E97820F931F6AE070E01B
:100E40000E94C10E9B0150E040E0C501B4010E9428
:100E50000B0FEB81FC813783268321E0258786EF0A
:100E600099E097878687AB81BC8118968D919C917C
:100E700019978C159D053CF51C968C911C97882321
:100E800011F11C961C921C97D6964D915C91D797A8
:100E9000D4962D913C91D597241B350B53963C93BA
:100EA0002E93529752968D919C9197FD0196959510
:100EB0008795840F951FEB81FC8191AF80AF95AB37
:100EC00084AB97AB86ABF5ECEF16F9E0FF060CF4BC
:100ED00065CFAB81BC8150968D919C915197D996ED
:100EE0009C938E93D897E0E0F2E0D596FC93EE9336
:100EF000D497D796FC93EE93D69754964D925D92E5
:100F00006D927C925797E1E0DA96EC93DA97DB9654
:100F10001C92DB971D961C921D9717961C921E9291
:100F2000169728E532E01B963C932E931A971C9651
:100F30001C921C9784E690E053969C938E93529754
:100F40002DCF8B819C818F3F910511F461E04ECFB5
:100F5000F701FF27EE58FF4FE491E33071F150F4B1
:100F6000E130D1F0E23019F1AB81BC81A038B1059C
:100F70006CF73BCFE73069F1E830A1F1E430A1F73D
:100F8000809180008062809380002B813C8130932F
:100F90008B0020938A0005C084B5806884BD9B8146
:100FA00097BD0F5F1F4FBCE32B0E311C2FCE84B5B6
:100FB000806284BDAB81A8BDF4CF80918000806841
:100FC00080938000EB81FC81F0938900E09388009E
:100FD000E8CF8091B00080688093B0003B8130936F
:100FE000B300DFCF8091B00080628093B0008B812E
:100FF0008093B400D6CF81E0E981FA81808778942C
:101000000F900F900F900F90DF91CF91FF91EF9184
:10101000BF91AF919F918F917F916F915F914F9110
:101020003F912F911F910F91FF90EF90DF90CF9004
:10103000BF90AF909F908F907F906F905F904F90F8
:101040003F902F900F900FBE0F901F901895109209
:1010500032021092310288EE93E0A0E0B0E080937B
:10106000330290933402A0933502B09336022AE003
:1010700031E03093300220932F0225EC30E03093A2
:101080003C0220933B0224EC30E030933E0220935C
:101090003D0220EC30E03093400220933F0221ECEF
:1010A00030E0309342022093410222EC30E0309352
:1010B00044022093430226EC30E030934602209312
:1010C0004502109248021092490210924A02109270
:1010D0004B0210925103109250038093520390934D
:1010E0005303A0935403B09355038CE191E0909384
:1010F0004F0380934E031092650310926403109285
:1011000067031092660310926903109268031092AD
:101110006B0310926A0360916C036E7F6D7F609326
:101120006C036695617081E068278AE00E94A101E6
:1011300061E08AE00E94ED01E8EBF0E0E491E093E9
:101140005E03E4EAF0E0E491F0E0EE0FFF1FE05709
:10115000FF4F859194919093600380935F0360E0CB
:1011600089E00E94ED0180916C0381FD04C061E083
:1011700089E00E94A10189E080935A03E7EBF0E047
:10118000E491E0935B03E3EAF0E0E491F0E0EE0F3A
:10119000FF1FEA57FF4F8591949190935D038093D1
:1011A0005C034FEF5FEFBA014093DB025093DC0228
:1011B0006093DD027093DE021092E3021092E4026B
:1011C0001092E5021092E6028FEF99ECAAE9BBE3D8
:1011D0008093EB029093EC02A093ED02B093EE02A9
:1011E0008093F3029093F402A093F502B093F60279
:1011F0008093FB029093FC02A093FD02B093FE0249
:101200008093030390930403A0930503B093060314
:1012100080930B0390930C03A0930D03B0930E03E4
:1012200040931303509314036093150370931603B4
:101230008FEF90E090931C0380931B0340931F0358
:10124000509320036093210370932203409327035C
:10125000509328036093290370932A0310922F035D
:101260001092300382E08093400310924103109269
:1012700042031092430310924403109245031092CC
:1012800046031092470310924903109248031092AC
:101290004B0310924A03109231031092D80210921D
:1012A000D70282E090E09093DA028093D9028EEC2C
:1012B00092E09093CD028093CC0281E08093CF02A4
:1012C0008CE390E00E94300FFC018EE090E091836F
:1012D00080838FEF9FEF938382839583848382E063
:1012E00090E0A0E0B0E0808F918FA28FB38FDF01FC
:1012F0005C96CF01C0961D921D92A817B907D9F729
:101300001586178216828EEE92E093878287148666
:1013100010AA11AA12AA13AA148A158A168A178A61
:1013200080E092E095AB84AB97AB86AB86E292E02F
:10133000918B808B91AF80AF84E690E0938B828B12
:1013400081E082AF13AE17861686F093D102E09348
:10135000D0020895789484B5826084BD84B581609C
:1013600084BD85B5826085BD85B5816085BD809170
:101370006E00816080936E001092810080918100E8
:1013800082608093810080918100816080938100E0
:10139000809180008160809380008091B1008460A2
:1013A0008093B1008091B00081608093B000809103
:1013B0007A00846080937A0080917A0082608093C2
:1013C0007A0080917A00816080937A0080917A001F
:1013D000806880937A001092C100E0913F02F09102
:1013E000400282E08083E0913B02F0913C02108257
:1013F000E0913D02F0913E028FEC80831092470213
:10140000E0914302F091440286E08083E091410242
:10141000F0914202808180618083E0914102F091ED
:101420004202808188608083E0914102F091420213
:10143000808180688083E0914102F0914202808146
:101440008F7D808310926903109268031092670366
:101450001092660310926503109264038DE991E087
:1014600090936B0380936A0390915A03963108F02E
:1014700047C02DEB30E030936503209364032BE9E4
:1014800031E030936703209366032CE231E0309320
:101490006903209368032091680084E0983048F045
:1014A00031E09E3008F430E081E001C0880F3A95C9
:1014B000EAF7822B809368002DE630E0983050F0F8
:1014C0002BE630E09E3030F02CE630E0963110F024
:1014D00030E020E03093620320936103292F30E055
:1014E000983008F07FC081E001C0880F9A95EAF734
:1014F0008093630380916A0390916B030197F1F7E6
:101500008091680390916903892B49F1E09125024C
:10151000F091260283E0EE34F80709F1309739F0B4
:10152000A389B4899C918589809589238C93809126
:101530006C038E7F80936C0310922402109223021E
:101540008EE493E09093260280932502E09161035C
:10155000F0916203808190916303892B8083E091F5
:10156000D002F091D102118210828DE090E093833D
:101570008283F89486E292E0918B808B91AF80AF6A
:10158000789410E000E0F12CE12C8091CF028E15D0
:101590001F04A9F1A4F1C091D002D091D102C00FD3
:1015A000D11F8A819B8197FD07C061E00E94ED01F8
:1015B00060E08A810E94A1018C819D8197FD0CC011
:1015C00061E00E94ED01CC8161E08C2F0E94ED0171
:1015D00060E08C2F0E94A1018FEFE81AF80A045CEA
:1015E0001F4FD3CF9E3040F42850310981E001C015
:1015F000880F2A95EAF77CCF2E503109F7CF0E9449
:1016000033026053784F8F4F9F4F6093D202709395
:10161000D3028093D4029093D5021092D6021092F6
:10162000CE0210928000109282008CE080938100A4
:101630008CE790E0909389008093880082E080930B
:101640006F00789469E371E08FE292E00E947C047D
:10165000C0E0D0E081E00E941E02BC01990F880B1F
:10166000990B0E949A0D20E030E04AEF53E40E946B
:101670004F0E20E030E040E85AE30E944F0E6093A6
:101680002B0270932C0280932D0290932E026BE517
:1016900071E08FE292E00E943B0340912B02509157
:1016A0002C0260912D0270912E0222E08FE292E0D6
:1016B0000E94960369E671E08FE292E00E947C044A
:1016C00060912B0270912C0280912D0290912E023C
:1016D0000E94620D70932A0260932902E091D00269
:1016E000F091D10206811781F8948585158678944A
:1016F000882359F16CE671E08FE292E00E943B038F
:101700006801012E000CEE08FF082AE0B701A601CF
:10171000F7FE0DC06DE28FE292E00E948D0044273B
:101720005527BA014C195D096E097F092AE08FE23D
:1017300092E00E944A0366E371E08FE292E00E9429
:101740003B03109328020093270280912902909175
:101750002A028A5591090B9740F4809127029091B3
:101760002802CC974A9708F496C062E771E08EE4AD
:1017700093E00E943B0360E971E080E090E00E940A
:1017800058026DE771E08EE493E00E947C046CE205
:1017900071E080E090E00E94580269E971E08EE417
:1017A00093E00E947C0463EA71E08EE493E00E947F
:1017B0003B0340912B0250912C0260912D027091BD
:1017C0002E0222E08EE493E00E94960362EB71E029
:1017D0008EE493E00E943B03C0902702D090280241
:1017E0000D2C000CEE08FF082AE0B701A601F7FE59
:1017F0000DC06DE28EE493E00E948D0044275527D2
:10180000BA014C195D096E097F092AE08EE493E064
:101810000E944A0366E371E08EE493E00E943B037A
:101820006DEB71E08EE493E00E943B0326E047EB12
:101830005CEF67E371E48EE493E00E94960369EC49
:1018400071E08EE493E00E943B0326E047EA5DE806
:101850006AE972E48EE493E00E94960368EC70E01B
:1018600080E090E00E9458026AE18EE493E00E94DA
:101870008D0066E371E08EE493E00E943B0368EC28
:1018800070E080E090E00E94580266E371E08EE430
:1018900093E00E943B0368EE73E080E090E00E94DA
:1018A000580266E371E08FE292E00E943B032097CA
:1018B00009F4D0CE0E94FE00882309F4CBCE0E940A
:1018C0000000C8CE8CE191E090934F0380934E03CB
:1018D00080912502909126028E54934071F4E091FC
:1018E0006103F09162039081809163038095892365
:1018F0008083109226021092250208955058BB272B
:10190000AA270E94960C0C94100E0E94020E38F02A
:101910000E94090E20F039F49F3F19F426F40C942C
:10192000FF0D0EF4E095E7FB0C94F90DE92F0E94F2
:10193000210E58F3BA17620773078407950720F042
:1019400079F4A6F50C94430E0EF4E0950B2EBA2F05
:10195000A02D0B01B90190010C01CA01A0011124B5
:10196000FF27591B99F0593F50F4503E68F11A1661
:10197000F040A22F232F342F4427585FF3CF4695F2
:1019800037952795A795F0405395C9F77EF41F1614
:10199000BA0B620B730B840BBAF09150A1F0FF0FDE
:1019A000BB1F661F771F881FC2F70EC0BA0F621FCA
:1019B000731F841F48F4879577956795B795F795BA
:1019C0009E3F08F0B0CF9395880F08F09927EE0F4F
:1019D0009795879508950E94D50D08F481E00895A4
:1019E0000E94040D0C94100E0E94090E58F00E94E3
:1019F000020E40F029F45F3F29F00C94F90D5111CB
:101A00000C94440E0C94FF0D0E94210E68F3992350
:101A1000B1F3552391F3951B550BBB27AA276217EA
:101A20007307840738F09F5F5F4F220F331F441FF7
:101A3000AA1FA9F335D00E2E3AF0E0E832D091502B
:101A40005040E695001CCAF72BD0FE2F29D0660F18
:101A5000771F881FBB1F261737074807AB07B0E85B
:101A600009F0BB0B802DBF01FF2793585F4F3AF061
:101A70009E3F510578F00C94F90D0C94440E5F3F95
:101A8000E4F3983ED4F3869577956795B795F795E7
:101A90009F5FC9F7880F911D9695879597F90895CF
:101AA000E1E0660F771F881FBB1F6217730784076B
:101AB000BA0720F0621B730B840BBA0BEE1F88F77A
:101AC000E09508950E94690D6894B1110C94440E3C
:101AD00008950E94290E88F09F5798F0B92F9927F2
:101AE000B751B0F0E1F0660F771F881F991F1AF009
:101AF000BA95C9F714C0B13091F00E94430EB1E01D
:101B000008950C94430E672F782F8827B85F39F01B
:101B1000B93FCCF3869577956795B395D9F73EF4A1
:101B200090958095709561957F4F8F4F9F4F089549
:101B3000E89409C097FB3EF4909580957095619567
:101B40007F4F8F4F9F4F9923A9F0F92F96E9BB271D
:101B50009395F695879577956795B795F111F8CF99
:101B6000FAF4BB0F11F460FF1BC06F5F7F4F8F4F04
:101B70009F4F16C0882311F096E911C0772321F0FA
:101B80009EE8872F762F05C0662371F096E8862F92
:101B900070E060E02AF09A95660F771F881FDAF7E9
:101BA000880F9695879597F90895990F0008550F16
:101BB000AA0BE0E8FEEF16161706E807F907C0F0D3
:101BC00012161306E407F50798F0621B730B840BDB
:101BD000950B39F40A2661F0232B242B252B21F4B5
:101BE00008950A2609F4A140A6958FEF811D811D55
:101BF000089597F99F6780E870E060E008959FEF8F
:101C000080EC089500240A94161617061806090693
:101C1000089500240A941216130614060506089562
:101C2000092E0394000C11F4882352F0BB0F40F4EA
:101C3000BF2B11F460FF04C06F5F7F4F8F4F9F4F2A
:101C4000089557FD9058440F551F59F05F3F71F0AC
:101C50004795880F97FB991F61F09F3F79F0879513
:101C60000895121613061406551FF2CF4695F1DF9C
:101C700008C0161617061806991FF1CF869571052C
:101C8000610508940895E894BB2766277727CB0160
:101C900097F908950E94D50D08F48FEF08950E94DA
:101CA000620E0C94100E0E94020E38F00E94090E73
:101CB00020F0952311F00C94F90D0C94FF0D1124D4
:101CC0000C94440E0E94210E70F3959FC1F3950F62
:101CD00050E0551F629FF001729FBB27F00DB11DB0
:101CE000639FAA27F00DB11DAA1F649F6627B00D40
:101CF000A11D661F829F2227B00DA11D621F739F29
:101D0000B00DA11D621F839FA00D611D221F749F36
:101D10003327A00D611D231F849F600D211D822F7D
:101D2000762F6A2F11249F5750409AF0F1F08823A4
:101D30004AF0EE0FFF1FBB1F661F771F881F9150D1
:101D40005040A9F79E3F510580F00C94F90D0C947A
:101D5000440E5F3FE4F3983ED4F3869577956795FC
:101D6000B795F795E7959F5FC1F7FE2B880F911DFB
:101D70009695879597F908950E94D50D880B990B34
:101D80000895AA1BBB1B51E107C0AA1FBB1FA617C2
:101D9000B70710F0A61BB70B881F991F5A95A9F714
:101DA00080959095BC01CD01089597FB072E16F400
:101DB000009407D077FD09D00E94C10E07FC05D022
:101DC0003EF4909581959F4F0895709561957F4F52
:101DD0000895A1E21A2EAA1BBB1BFD010DC0AA1F6C
:101DE000BB1FEE1FFF1FA217B307E407F50720F084
:101DF000A21BB30BE40BF50B661F771F881F991FFF
:101E00001A9469F760957095809590959B01AC0147
:101E1000BD01CF010895052E97FB1EF400940E948A
:101E2000220F57FD07D00E94E90E07FC03D04EF4A5
:101E30000C94220F50954095309521953F4F4F4F70
:101E40005F4F089590958095709561957F4F8F4F66
:101E50009F4F0895EE0FFF1F0590F491E02D099418
:101E60000F931F93CF93DF938230910510F482E09C
:101E700090E0E0916F03F091700330E020E0B0E07B
:101E8000A0E0309799F42115310509F44AC0281BC8
:101E9000390B24303105D8F58A819B816115710594
:101EA00089F1FB0193838283FE0111C0408151813E
:101EB0000281138148175907E0F04817590799F430
:101EC000109761F012960C93129713961C9332960A
:101ED000CF01DF91CF911F910F91089500936F0370
:101EE00010937003F4CF2115310551F042175307B9
:101EF00038F0A901DB019A01BD01DF01F801C1CF72
:101F0000EF01F9CF9093700380936F03CDCFFE0163
:101F1000E20FF31F81939193225031093983288373
:101F2000D7CF20916D0330916E03232B41F4209184
:101F300002013091030130936E0320936D032091D1
:101F40000001309101012115310541F42DB73EB753
:101F50004091040150910501241B350BE0916D0364
:101F6000F0916E03E217F307A0F42E1B3F0B281726
:101F7000390778F0AC014E5F5F4F2417350748F002
:101F80004E0F5F1F50936E0340936D0381939193A7
:101F90009FCFF0E0E0E09CCFCF93DF930097E9F094
:101FA000FC01329713821282A0916F03B0917003EB
:101FB000ED0130E020E01097A1F420813181820F03
:101FC000931F20916D0330916E032817390709F094
:101FD00061C0F0936E03E0936D03DF91CF9108959C
:101FE000EA01CE17DF07E8F54A815B819E014115C2
:101FF0005105B1F7E901FB83EA8349915991C40F77
:10200000D51FEC17FD0761F4808191810296840F42
:10201000951FE90199838883828193819B838A83B9
:10202000F0E0E0E012968D919C9113970097B9F53E
:102030002D913C911197CD010296820F931F209113
:102040006D0330916E032817390739F6309751F533
:102050001092700310926F03B0936E03A0936D0300
:10206000BCCFD383C28340815181840F951FC81791
:10207000D90761F44E5F5F4F88819981480F591FDE
:10208000518340838A819B8193838283211531050B
:1020900009F0B0CFF0937003E0936F039ECFFD0182
:1020A000DC01C0CF13821282D7CF10E0C2E6D0E0AD
:1020B00004C0FE010E942A0F2196C336D107C9F73A
:0420C000F894FFCFC2
:1020C4000000710380000000000034019400C1008E
:1020D4008101F200D000E40000000000A30294009B
:1020E4003803A202FF0217038A026E616E00696E52
:1020F40066006F7666000D0A00576520637265619D
:1021040074656420612070756C736553656E736FBC
:1021140072204F626A65637420210054454D505209
:102124004154555245203D20002A430042504D3A27
:10213400200041542B434D47463D310D004154206E
:102144002B20434D4753203D20222B39313938343D
:10215400323531333337332200535553484D4954C4
:1021640048410054656D7065726174757265203DF7
:1021740020002020202042504D203D20004C61743E
:102184006974756465203D2000202020204C6F6E0A
:0A219400676974756465203D200042
:00000001FF
